{
  "abi": [
    {
      "type": "constructor",
      "inputs": [],
      "stateMutability": "nonpayable"
    },
    {
      "type": "function",
      "name": "buy",
      "inputs": [
        {
          "name": "_id",
          "type": "uint256",
          "internalType": "uint256"
        }
      ],
      "outputs": [],
      "stateMutability": "payable"
    },
    {
      "type": "function",
      "name": "createStream",
      "inputs": [
        {
          "name": "_id",
          "type": "uint256",
          "internalType": "uint256"
        },
        {
          "name": "_title",
          "type": "string",
          "internalType": "string"
        },
        {
          "name": "_slug",
          "type": "string",
          "internalType": "string"
        },
        {
          "name": "_description",
          "type": "string",
          "internalType": "string"
        },
        {
          "name": "_cost",
          "type": "uint256",
          "internalType": "uint256"
        }
      ],
      "outputs": [],
      "stateMutability": "nonpayable"
    },
    {
      "type": "function",
      "name": "donate",
      "inputs": [
        {
          "name": "_streamId",
          "type": "uint256",
          "internalType": "uint256"
        }
      ],
      "outputs": [],
      "stateMutability": "payable"
    },
    {
      "type": "function",
      "name": "getAllStreams",
      "inputs": [],
      "outputs": [
        {
          "name": "",
          "type": "tuple[]",
          "internalType": "struct Edulive.StreamInfo[]",
          "components": [
            {
              "name": "id",
              "type": "uint256",
              "internalType": "uint256"
            },
            {
              "name": "title",
              "type": "string",
              "internalType": "string"
            },
            {
              "name": "slug",
              "type": "string",
              "internalType": "string"
            },
            {
              "name": "description",
              "type": "string",
              "internalType": "string"
            },
            {
              "name": "cost",
              "type": "uint256",
              "internalType": "uint256"
            }
          ]
        }
      ],
      "stateMutability": "view"
    },
    {
      "type": "function",
      "name": "getDonorTotalDonations",
      "inputs": [
        {
          "name": "_donor",
          "type": "address",
          "internalType": "address"
        }
      ],
      "outputs": [
        {
          "name": "",
          "type": "uint256",
          "internalType": "uint256"
        }
      ],
      "stateMutability": "view"
    },
    {
      "type": "function",
      "name": "list",
      "inputs": [
        {
          "name": "_id",
          "type": "uint256",
          "internalType": "uint256"
        },
        {
          "name": "_title",
          "type": "string",
          "internalType": "string"
        },
        {
          "name": "_slug",
          "type": "string",
          "internalType": "string"
        },
        {
          "name": "_description",
          "type": "string",
          "internalType": "string"
        },
        {
          "name": "_cost",
          "type": "uint256",
          "internalType": "uint256"
        }
      ],
      "outputs": [],
      "stateMutability": "nonpayable"
    },
    {
      "type": "function",
      "name": "orderCount",
      "inputs": [
        {
          "name": "",
          "type": "address",
          "internalType": "address"
        }
      ],
      "outputs": [
        {
          "name": "",
          "type": "uint256",
          "internalType": "uint256"
        }
      ],
      "stateMutability": "view"
    },
    {
      "type": "function",
      "name": "orders",
      "inputs": [
        {
          "name": "",
          "type": "address",
          "internalType": "address"
        },
        {
          "name": "",
          "type": "uint256",
          "internalType": "uint256"
        }
      ],
      "outputs": [
        {
          "name": "time",
          "type": "uint256",
          "internalType": "uint256"
        },
        {
          "name": "streamId",
          "type": "uint256",
          "internalType": "uint256"
        }
      ],
      "stateMutability": "view"
    },
    {
      "type": "function",
      "name": "owner",
      "inputs": [],
      "outputs": [
        {
          "name": "",
          "type": "address",
          "internalType": "address"
        }
      ],
      "stateMutability": "view"
    },
    {
      "type": "function",
      "name": "streamCount",
      "inputs": [],
      "outputs": [
        {
          "name": "",
          "type": "uint256",
          "internalType": "uint256"
        }
      ],
      "stateMutability": "view"
    },
    {
      "type": "function",
      "name": "streams",
      "inputs": [
        {
          "name": "",
          "type": "uint256",
          "internalType": "uint256"
        }
      ],
      "outputs": [
        {
          "name": "id",
          "type": "uint256",
          "internalType": "uint256"
        },
        {
          "name": "title",
          "type": "string",
          "internalType": "string"
        },
        {
          "name": "slug",
          "type": "string",
          "internalType": "string"
        },
        {
          "name": "description",
          "type": "string",
          "internalType": "string"
        },
        {
          "name": "cost",
          "type": "uint256",
          "internalType": "uint256"
        }
      ],
      "stateMutability": "view"
    },
    {
      "type": "function",
      "name": "totalDonations",
      "inputs": [
        {
          "name": "",
          "type": "address",
          "internalType": "address"
        }
      ],
      "outputs": [
        {
          "name": "",
          "type": "uint256",
          "internalType": "uint256"
        }
      ],
      "stateMutability": "view"
    },
    {
      "type": "function",
      "name": "totalDonationsReceived",
      "inputs": [],
      "outputs": [
        {
          "name": "",
          "type": "uint256",
          "internalType": "uint256"
        }
      ],
      "stateMutability": "view"
    },
    {
      "type": "function",
      "name": "withdraw",
      "inputs": [],
      "outputs": [],
      "stateMutability": "nonpayable"
    },
    {
      "type": "event",
      "name": "Buy",
      "inputs": [
        {
          "name": "buyer",
          "type": "address",
          "indexed": false,
          "internalType": "address"
        },
        {
          "name": "orderId",
          "type": "uint256",
          "indexed": false,
          "internalType": "uint256"
        },
        {
          "name": "streamId",
          "type": "uint256",
          "indexed": false,
          "internalType": "uint256"
        }
      ],
      "anonymous": false
    },
    {
      "type": "event",
      "name": "Donation",
      "inputs": [
        {
          "name": "donor",
          "type": "address",
          "indexed": true,
          "internalType": "address"
        },
        {
          "name": "amount",
          "type": "uint256",
          "indexed": false,
          "internalType": "uint256"
        },
        {
          "name": "streamId",
          "type": "uint256",
          "indexed": false,
          "internalType": "uint256"
        }
      ],
      "anonymous": false
    },
    {
      "type": "event",
      "name": "List",
      "inputs": [
        {
          "name": "title",
          "type": "string",
          "indexed": false,
          "internalType": "string"
        },
        {
          "name": "cost",
          "type": "uint256",
          "indexed": false,
          "internalType": "uint256"
        }
      ],
      "anonymous": false
    },
    {
      "type": "event",
      "name": "createNewStream",
      "inputs": [
        {
          "name": "streamId",
          "type": "uint256",
          "indexed": false,
          "internalType": "uint256"
        },
        {
          "name": "title",
          "type": "string",
          "indexed": false,
          "internalType": "string"
        },
        {
          "name": "slug",
          "type": "string",
          "indexed": false,
          "internalType": "string"
        },
        {
          "name": "description",
          "type": "string",
          "indexed": false,
          "internalType": "string"
        },
        {
          "name": "cost",
          "type": "uint256",
          "indexed": false,
          "internalType": "uint256"
        }
      ],
      "anonymous": false
    }
  ],
  "bytecode": {
    "object": "0x6080604052348015600f57600080fd5b50600080546001600160a01b031916331790556112a8806100316000396000f3fe6080604052600436106100dd5760003560e01c8063862e2fc81161007f578063cc40e29b11610059578063cc40e29b14610295578063cd201a85146102b5578063d96a094a146102eb578063f14faf6f146102fe57600080fd5b8063862e2fc81461023157806389d0e119146102475780638da5cb5b1461025d57600080fd5b80635a711e21116100bb5780635a711e211461015f57806364d60d911461017f578063713d856b146101b0578063793b8c6d146101dd57600080fd5b80633bd84c0c146100e25780633ccfd60b1461010d5780635a4c38a714610124575b600080fd5b3480156100ee57600080fd5b506100f7610311565b6040516101049190610da1565b60405180910390f35b34801561011957600080fd5b506101226105d3565b005b34801561013057600080fd5b5061015161013f366004610e78565b60056020526000908152604090205481565b604051908152602001610104565b34801561016b57600080fd5b5061012261017a366004610f3f565b6106e7565b34801561018b57600080fd5b5061019f61019a366004610fe5565b6107fc565b604051610104959493929190610ffe565b3480156101bc57600080fd5b506101516101cb366004610e78565b60026020526000908152604090205481565b3480156101e957600080fd5b5061021c6101f8366004611050565b60036020908152600092835260408084209091529082529020805460019091015482565b60408051928352602083019190915201610104565b34801561023d57600080fd5b5061015160065481565b34801561025357600080fd5b5061015160045481565b34801561026957600080fd5b5060005461027d906001600160a01b031681565b6040516001600160a01b039091168152602001610104565b3480156102a157600080fd5b506101226102b0366004610f3f565b6109c2565b3480156102c157600080fd5b506101516102d0366004610e78565b6001600160a01b031660009081526005602052604090205490565b6101226102f9366004610fe5565b610a65565b61012261030c366004610fe5565b610b88565b6060600060045467ffffffffffffffff81111561033057610330610e9a565b60405190808252806020026020018201604052801561039357816020015b6103806040518060a0016040528060008152602001606081526020016060815260200160608152602001600081525090565b81526020019060019003908161034e5790505b509050600060015b60045481116105cb5760008181526001602052604090208054156105b8576040518060a00160405280826000015481526020018260010180546103dd9061107a565b80601f01602080910402602001604051908101604052809291908181526020018280546104099061107a565b80156104565780601f1061042b57610100808354040283529160200191610456565b820191906000526020600020905b81548152906001019060200180831161043957829003601f168201915b5050505050815260200182600201805461046f9061107a565b80601f016020809104026020016040519081016040528092919081815260200182805461049b9061107a565b80156104e85780601f106104bd576101008083540402835291602001916104e8565b820191906000526020600020905b8154815290600101906020018083116104cb57829003601f168201915b505050505081526020018260030180546105019061107a565b80601f016020809104026020016040519081016040528092919081815260200182805461052d9061107a565b801561057a5780601f1061054f5761010080835404028352916020019161057a565b820191906000526020600020905b81548152906001019060200180831161055d57829003601f168201915b50505050508152602001826004015481525084848151811061059e5761059e6110b4565b602002602001018190525082806105b4906110e0565b9350505b50806105c3816110e0565b91505061039b565b509092915050565b6000546001600160a01b031633146106065760405162461bcd60e51b81526004016105fd906110f9565b60405180910390fd5b478061064b5760405162461bcd60e51b81526020600482015260146024820152734e6f2066756e647320746f20776974686472617760601b60448201526064016105fd565b600080546040516001600160a01b039091169083908381818185875af1925050503d8060008114610698576040519150601f19603f3d011682016040523d82523d6000602084013e61069d565b606091505b50509050806106e35760405162461bcd60e51b81526020600482015260126024820152715769746864726177616c206661696c65642160701b60448201526064016105fd565b5050565b6000546001600160a01b031633146107115760405162461bcd60e51b81526004016105fd906110f9565b6000858152600160205260409020541561076d5760405162461bcd60e51b815260206004820152601960248201527f53747265616d20494420616c726561647920657869737473210000000000000060448201526064016105fd565b600085815260016020819052604090912086815590810161078e8682611178565b506002810161079d8582611178565b50600381016107ac8482611178565b50600481018290556040517fd505c56a058936a6708603e2a9d8b84a5a8c500e10fa51f1d8436059081a3c96906107ec9088908890889088908890610ffe565b60405180910390a1505050505050565b60016020819052600091825260409091208054918101805461081d9061107a565b80601f01602080910402602001604051908101604052809291908181526020018280546108499061107a565b80156108965780601f1061086b57610100808354040283529160200191610896565b820191906000526020600020905b81548152906001019060200180831161087957829003601f168201915b5050505050908060020180546108ab9061107a565b80601f01602080910402602001604051908101604052809291908181526020018280546108d79061107a565b80156109245780601f106108f957610100808354040283529160200191610924565b820191906000526020600020905b81548152906001019060200180831161090757829003601f168201915b5050505050908060030180546109399061107a565b80601f01602080910402602001604051908101604052809291908181526020018280546109659061107a565b80156109b25780601f10610987576101008083540402835291602001916109b2565b820191906000526020600020905b81548152906001019060200180831161099557829003601f168201915b5050505050908060040154905085565b6000546001600160a01b031633146109ec5760405162461bcd60e51b81526004016105fd906110f9565b6000858152600160208190526040909120868155908101610a0d8682611178565b5060038101610a1c8482611178565b5060028101610a2b8582611178565b50600481018290556040517f6777458730c06ba2ecf56a9f5a54676fc11f8b7da73424b020dd4dc6630f5fc0906107ec9087908590611237565b60008181526001602052604090206004810154341015610ada5760405162461bcd60e51b815260206004820152602a60248201527f596f75722062616c616e6361206d75737420626520626967676572207468616e6044820152692074686520636f73742160b01b60648201526084016105fd565b6040805180820182524281526020808201859052336000908152600290915291822080549192610b09836110e0565b90915550503360008181526003602090815260408083206002808452828520805486529184528285208751815587850151600190910155938590529282529154855483519485529184015282820152517f1cbc5ab135991bd2b6a4b034a04aa2aa086dac1371cb9b16b8b5e2ed6b036bed9181900360600190a1505050565b60003411610be75760405162461bcd60e51b815260206004820152602660248201527f446f6e6174696f6e20616d6f756e74206d75737420626520677265617465722060448201526507468616e20360d41b60648201526084016105fd565b6000818152600160205260408120549003610c3c5760405162461bcd60e51b815260206004820152601560248201527414dd1c99585b48191bd95cc81b9bdd08195e1a5cdd605a1b60448201526064016105fd565b3360009081526005602052604081208054349290610c5b908490611259565b925050819055503460066000828254610c749190611259565b9091555050600080546040516001600160a01b039091169034908381818185875af1925050503d8060008114610cc6576040519150601f19603f3d011682016040523d82523d6000602084013e610ccb565b606091505b5050905080610d1c5760405162461bcd60e51b815260206004820152601860248201527f446f6e6174696f6e207472616e73666572206661696c6564000000000000000060448201526064016105fd565b604080513481526020810184905233917f106aac375bbcf013d1e52338bbf9e740009a1a3a6869f8daa1b72aa1620f5fec910160405180910390a25050565b6000815180845260005b81811015610d8157602081850181015186830182015201610d65565b506000602082860101526020601f19601f83011685010191505092915050565b6000602082016020835280845180835260408501915060408160051b86010192506020860160005b82811015610e5057603f19878603018452815180518652602081015160a06020880152610df960a0880182610d5b565b905060408201518782036040890152610e128282610d5b565b91505060608201518782036060890152610e2c8282610d5b565b60809384015198909301979097525094506020938401939190910190600101610dc9565b50929695505050505050565b80356001600160a01b0381168114610e7357600080fd5b919050565b600060208284031215610e8a57600080fd5b610e9382610e5c565b9392505050565b634e487b7160e01b600052604160045260246000fd5b600082601f830112610ec157600080fd5b813567ffffffffffffffff811115610edb57610edb610e9a565b604051601f8201601f19908116603f0116810167ffffffffffffffff81118282101715610f0a57610f0a610e9a565b604052818152838201602001851015610f2257600080fd5b816020850160208301376000918101602001919091529392505050565b600080600080600060a08688031215610f5757600080fd5b85359450602086013567ffffffffffffffff811115610f7557600080fd5b610f8188828901610eb0565b945050604086013567ffffffffffffffff811115610f9e57600080fd5b610faa88828901610eb0565b935050606086013567ffffffffffffffff811115610fc757600080fd5b610fd388828901610eb0565b95989497509295608001359392505050565b600060208284031215610ff757600080fd5b5035919050565b85815260a06020820152600061101760a0830187610d5b565b82810360408401526110298187610d5b565b9050828103606084015261103d8186610d5b565b9150508260808301529695505050505050565b6000806040838503121561106357600080fd5b61106c83610e5c565b946020939093013593505050565b600181811c9082168061108e57607f821691505b6020821081036110ae57634e487b7160e01b600052602260045260246000fd5b50919050565b634e487b7160e01b600052603260045260246000fd5b634e487b7160e01b600052601160045260246000fd5b6000600182016110f2576110f26110ca565b5060010190565b602080825260169082015275596f75206d75737420626520746865206f776e65722160501b604082015260600190565b601f82111561117357806000526020600020601f840160051c810160208510156111505750805b601f840160051c820191505b81811015611170576000815560010161115c565b50505b505050565b815167ffffffffffffffff81111561119257611192610e9a565b6111a6816111a0845461107a565b84611129565b6020601f8211600181146111da57600083156111c25750848201515b600019600385901b1c1916600184901b178455611170565b600084815260208120601f198516915b8281101561120a57878501518255602094850194600190920191016111ea565b50848210156112285786840151600019600387901b60f8161c191681555b50505050600190811b01905550565b60408152600061124a6040830185610d5b565b90508260208301529392505050565b8082018082111561126c5761126c6110ca565b9291505056fea26469706673582212201e2e1ecca0c66649e608b2ca3273cf32afdac6cde3bc09b2c6330eda6a3c5a5a64736f6c634300081a0033",
    "linkReferences": {}
  },
  "methodIdentifiers": {
    "buy(uint256)": "d96a094a",
    "createStream(uint256,string,string,string,uint256)": "5a711e21",
    "donate(uint256)": "f14faf6f",
    "getAllStreams()": "3bd84c0c",
    "getDonorTotalDonations(address)": "cd201a85",
    "list(uint256,string,string,string,uint256)": "cc40e29b",
    "orderCount(address)": "713d856b",
    "orders(address,uint256)": "793b8c6d",
    "owner()": "8da5cb5b",
    "streamCount()": "89d0e119",
    "streams(uint256)": "64d60d91",
    "totalDonations(address)": "5a4c38a7",
    "totalDonationsReceived()": "862e2fc8",
    "withdraw()": "3ccfd60b"
  },
  "id": 20
}