{
  "abi": [
    {
      "type": "constructor",
      "inputs": [],
      "stateMutability": "nonpayable"
    },
    {
      "type": "function",
      "name": "donate",
      "inputs": [
        {
          "name": "_streamId",
          "type": "uint256",
          "internalType": "uint256"
        }
      ],
      "outputs": [],
      "stateMutability": "payable"
    },
    {
      "type": "function",
      "name": "getAllTransactions",
      "inputs": [],
      "outputs": [
        {
          "name": "",
          "type": "tuple[]",
          "internalType": "struct Edulive.TransferStruct[]",
          "components": [
            {
              "name": "sender",
              "type": "address",
              "internalType": "address"
            },
            {
              "name": "receiver",
              "type": "address",
              "internalType": "address"
            },
            {
              "name": "amount",
              "type": "uint256",
              "internalType": "uint256"
            },
            {
              "name": "remark",
              "type": "string",
              "internalType": "string"
            },
            {
              "name": "timestamp",
              "type": "uint256",
              "internalType": "uint256"
            }
          ]
        }
      ],
      "stateMutability": "view"
    },
    {
      "type": "function",
      "name": "getBalance",
      "inputs": [
        {
          "name": "addr",
          "type": "address",
          "internalType": "address"
        }
      ],
      "outputs": [
        {
          "name": "",
          "type": "uint256",
          "internalType": "uint256"
        }
      ],
      "stateMutability": "view"
    },
    {
      "type": "function",
      "name": "getDonorTotalDonations",
      "inputs": [
        {
          "name": "_donor",
          "type": "address",
          "internalType": "address"
        }
      ],
      "outputs": [
        {
          "name": "",
          "type": "uint256",
          "internalType": "uint256"
        }
      ],
      "stateMutability": "view"
    },
    {
      "type": "function",
      "name": "getOwner",
      "inputs": [],
      "outputs": [
        {
          "name": "",
          "type": "address",
          "internalType": "address"
        }
      ],
      "stateMutability": "view"
    },
    {
      "type": "function",
      "name": "getTransactionsCount",
      "inputs": [],
      "outputs": [
        {
          "name": "",
          "type": "uint256",
          "internalType": "uint256"
        }
      ],
      "stateMutability": "view"
    },
    {
      "type": "function",
      "name": "sendMoney",
      "inputs": [
        {
          "name": "receiver",
          "type": "address",
          "internalType": "address payable"
        },
        {
          "name": "amount",
          "type": "uint256",
          "internalType": "uint256"
        },
        {
          "name": "remark",
          "type": "string",
          "internalType": "string"
        }
      ],
      "outputs": [
        {
          "name": "success",
          "type": "bool",
          "internalType": "bool"
        }
      ],
      "stateMutability": "nonpayable"
    },
    {
      "type": "function",
      "name": "totalDonations",
      "inputs": [
        {
          "name": "",
          "type": "address",
          "internalType": "address"
        }
      ],
      "outputs": [
        {
          "name": "",
          "type": "uint256",
          "internalType": "uint256"
        }
      ],
      "stateMutability": "view"
    },
    {
      "type": "function",
      "name": "totalDonationsReceived",
      "inputs": [],
      "outputs": [
        {
          "name": "",
          "type": "uint256",
          "internalType": "uint256"
        }
      ],
      "stateMutability": "view"
    },
    {
      "type": "function",
      "name": "withdraw",
      "inputs": [],
      "outputs": [],
      "stateMutability": "nonpayable"
    },
    {
      "type": "event",
      "name": "Donation",
      "inputs": [
        {
          "name": "donor",
          "type": "address",
          "indexed": true,
          "internalType": "address"
        },
        {
          "name": "amount",
          "type": "uint256",
          "indexed": false,
          "internalType": "uint256"
        },
        {
          "name": "streamId",
          "type": "uint256",
          "indexed": false,
          "internalType": "uint256"
        }
      ],
      "anonymous": false
    },
    {
      "type": "event",
      "name": "Transfer",
      "inputs": [
        {
          "name": "sender",
          "type": "address",
          "indexed": true,
          "internalType": "address"
        },
        {
          "name": "receiver",
          "type": "address",
          "indexed": true,
          "internalType": "address"
        },
        {
          "name": "amount",
          "type": "uint256",
          "indexed": false,
          "internalType": "uint256"
        },
        {
          "name": "remark",
          "type": "string",
          "indexed": false,
          "internalType": "string"
        },
        {
          "name": "timestamp",
          "type": "uint256",
          "indexed": false,
          "internalType": "uint256"
        }
      ],
      "anonymous": false
    }
  ],
  "bytecode": {
    "object": "0x6080604052348015600f57600080fd5b50600080546001600160a01b0319163390811782553282526002602052604090912090319055610b15806100446000396000f3fe6080604052600436106100915760003560e01c8063862e2fc811610059578063862e2fc814610150578063893d20e814610166578063cd201a851461018e578063f14faf6f146101c4578063f8b2cb4f146101d757600080fd5b8063125c5df71461009657806327506f53146100cb5780633ccfd60b146100ed578063578cb8f9146101045780635a4c38a714610123575b600080fd5b3480156100a257600080fd5b506100b66100b1366004610730565b61020d565b60405190151581526020015b60405180910390f35b3480156100d757600080fd5b506100e061041c565b6040516100c2919061084b565b3480156100f957600080fd5b50610102610545565b005b34801561011057600080fd5b506001545b6040519081526020016100c2565b34801561012f57600080fd5b5061011561013e3660046108f6565b60036020526000908152604090205481565b34801561015c57600080fd5b5061011560045481565b34801561017257600080fd5b506000546040516001600160a01b0390911681526020016100c2565b34801561019a57600080fd5b506101156101a93660046108f6565b6001600160a01b031660009081526003602052604090205490565b6101026101d2366004610913565b610628565b3480156101e357600080fd5b506101156101f23660046108f6565b6001600160a01b031660009081526002602052604090205490565b600080546001600160a01b031681526002602052604081205483111561023557506000610415565b600080546001600160a01b03168152600260205260408120805485929061025d908490610942565b90915550506001600160a01b0384166000908152600260205260408120805485929061028a90849061095b565b9250508190555060018060008282546102a3919061095b565b90915550506040805160a081018252600080546001600160a01b03908116835287811660208401908152938301878152606084018781524260808601526005805460018101825594819052855194027f036b6384b5eca791c62761152d0c79bb0604c104a5fb6f4eb0703f3154bb3db0810180549585166001600160a01b031996871617815596517f036b6384b5eca791c62761152d0c79bb0604c104a5fb6f4eb0703f3154bb3db18201805491909516951694909417909255517f036b6384b5eca791c62761152d0c79bb0604c104a5fb6f4eb0703f3154bb3db2830155519192917f036b6384b5eca791c62761152d0c79bb0604c104a5fb6f4eb0703f3154bb3db3909101906103b590826109f7565b50608082015181600401555050836001600160a01b0316336001600160a01b03167fc4b32d7ff75a51e487f3cbb5d3202f2efecca1f4c2b987e0039c1d3220b48a8385854260405161040993929190610ab6565b60405180910390a35060015b9392505050565b60606005805480602002602001604051908101604052809291908181526020016000905b8282101561053c5760008481526020908190206040805160a0810182526005860290920180546001600160a01b039081168452600182015416938301939093526002830154908201526003820180549192916060840191906104a19061096e565b80601f01602080910402602001604051908101604052809291908181526020018280546104cd9061096e565b801561051a5780601f106104ef5761010080835404028352916020019161051a565b820191906000526020600020905b8154815290600101906020018083116104fd57829003601f168201915b5050505050815260200160048201548152505081526020019060010190610440565b50505050905090565b6000546001600160a01b031633146105a45760405162461bcd60e51b815260206004820152601760248201527f4f6e6c79206f776e65722063616e20776974686472617700000000000000000060448201526064015b60405180910390fd5b47806105eb5760405162461bcd60e51b81526020600482015260166024820152754e6f2062616c616e636520746f20776974686472617760501b604482015260640161059b565b600080546040516001600160a01b039091169183156108fc02918491818181858888f19350505050158015610624573d6000803e3d6000fd5b5050565b600034116106875760405162461bcd60e51b815260206004820152602660248201527f446f6e6174696f6e20616d6f756e74206d75737420626520677265617465722060448201526507468616e20360d41b606482015260840161059b565b33600090815260036020526040812080543492906106a690849061095b565b9250508190555034600460008282546106bf919061095b565b9091555050604080513481526020810183905233917f106aac375bbcf013d1e52338bbf9e740009a1a3a6869f8daa1b72aa1620f5fec910160405180910390a250565b6001600160a01b038116811461071757600080fd5b50565b634e487b7160e01b600052604160045260246000fd5b60008060006060848603121561074557600080fd5b833561075081610702565b925060208401359150604084013567ffffffffffffffff81111561077357600080fd5b8401601f8101861361078457600080fd5b803567ffffffffffffffff81111561079e5761079e61071a565b604051601f8201601f19908116603f0116810167ffffffffffffffff811182821017156107cd576107cd61071a565b6040528181528282016020018810156107e557600080fd5b816020840160208301376000602083830101528093505050509250925092565b6000815180845260005b8181101561082b5760208185018101518683018201520161080f565b506000602082860101526020601f19601f83011685010191505092915050565b6000602082016020835280845180835260408501915060408160051b86010192506020860160005b828110156108ea57603f19878603018452815160018060a01b03815116865260018060a01b03602082015116602087015260408101516040870152606081015160a060608801526108c760a0880182610805565b608092830151979092019690965294506020938401939190910190600101610873565b50929695505050505050565b60006020828403121561090857600080fd5b813561041581610702565b60006020828403121561092557600080fd5b5035919050565b634e487b7160e01b600052601160045260246000fd5b818103818111156109555761095561092c565b92915050565b808201808211156109555761095561092c565b600181811c9082168061098257607f821691505b6020821081036109a257634e487b7160e01b600052602260045260246000fd5b50919050565b601f8211156109f257806000526020600020601f840160051c810160208510156109cf5750805b601f840160051c820191505b818110156109ef57600081556001016109db565b50505b505050565b815167ffffffffffffffff811115610a1157610a1161071a565b610a2581610a1f845461096e565b846109a8565b6020601f821160018114610a595760008315610a415750848201515b600019600385901b1c1916600184901b1784556109ef565b600084815260208120601f198516915b82811015610a895787850151825560209485019460019092019101610a69565b5084821015610aa75786840151600019600387901b60f8161c191681555b50505050600190811b01905550565b838152606060208201526000610acf6060830185610805565b905082604083015294935050505056fea26469706673582212207adb710bc48fa259ae1e574f936673e19fd2e7bfef0178282015d7b69a66529164736f6c634300081a0033",
    "linkReferences": {}
  },
  "methodIdentifiers": {
    "donate(uint256)": "f14faf6f",
    "getAllTransactions()": "27506f53",
    "getBalance(address)": "f8b2cb4f",
    "getDonorTotalDonations(address)": "cd201a85",
    "getOwner()": "893d20e8",
    "getTransactionsCount()": "578cb8f9",
    "sendMoney(address,uint256,string)": "125c5df7",
    "totalDonations(address)": "5a4c38a7",
    "totalDonationsReceived()": "862e2fc8",
    "withdraw()": "3ccfd60b"
  },
  "id": 20
}